:020000040000FA
:100000000C9467010C948F010C948F010C948F0158
:100010000C948F010C948F010C948F010C948F0120
:100020000C948F010C948F010C948F010C948F0110
:100030000C948F010C948F010C948F010C948F0100
:100040000C94BB220C948F010C942B230C9405234D
:100050000C948F010C948F010C948F010C948F01E0
:100060000C945D230C948F0100407A10F35A00A089
:10007000724E18090010A5D4E80000E87648170071
:1000800000E40B54020000CA9A3B000000E1F505B1
:10009000000080969800000040420F000000A086FB
:1000A00001000000102700000000E803000000002D
:1000B0006400000000000A000000000001000000D1
:1000C00000002C76D888DC674F0823DFC1DFAE59EB
:1000D000E1B1B796E5E3E453C63AE651997696E87E
:1000E000E6C28426EB898C9B62ED407C6FFCEFBC02
:1000F0009C9F40F2BAA56FA5F490055A2AF75C932D
:100100006B6CF9676DC11BFCE0E40D47FEF520E662
:10011000B500D0ED902E0300943577050080841E45
:10012000080000204E0A000000C80C333333330FA0
:10013000986E12831141EF8D2114893BE65516CF3D
:10014000FEE6DB18D1844B381BF77C1D901DA4BB49
:10015000E424203284725E228100C9F124ECA1E5FE
:100160003D27626C6E6B696E66006D637500302EA4
:10017000302E300066772D7479706500544D504CE8
:100180003244304D5067686A4C006275696C640097
:100190004D617920203520323032352030333A31EC
:1001A000393A323000626C796E6B00312E332E3268
:1001B00000682D6265617400343500627566662DD5
:1001C000696E003235360064657600417264756987
:1001D0006E6F20556E6F006370750041546D6567DA
:1001E000613332385000636F6E0057353130300064
:1001F000000000000000240027002A00000000008A
:10020000250028002B000000000023002600290004
:1002100004040404040404040202020202020303AC
:1002200003030303010204081020408001020408B4
:100230001020010204081020000000080002010044
:10024000000304070000000000000000BA01BA012A
:10025000BA01BA01BA01BA01BA01BA01BA01BA01C6
:10026000BA01BA01BA01BA01BA01BA01BA01BA01B6
:10027000BA01BA01BA01BA01BA01BA01BA01BA01A6
:10028000BA01BA01BA01BA01BA01BA01170BB90130
:10029000F30AD30AAD0AB901B901B901B901B9012B
:1002A000B901B901B901B901B901B901B901B9017E
:1002B000B901B901B901B901B901B901B901B9016E
:1002C000B901B901B901B901B901B9010725112471
:1002D0001FBECFEFD8E0DEBFCDBF12E0A0E0B1E09F
:1002E000E2E3F9E602C005900D92AA3BB107D9F707
:1002F00025E0AAEBB2E001C01D92A43DB207E1F7F0
:1003000011E0C7E6D1E004C02197FE010E949833B6
:10031000C636D107C9F70E94FC250C9497340C947B
:100320000000E8EEF3E0A089B18982E08C93A48517
:10033000B5851C92A685B78587E68C93108EA48917
:10034000B58986E08C93A289B3898C9180618C9366
:10035000A289B3898C9188608C93A289B3898C918E
:1003600080688C930288F389E02D80818F7D808363
:100370000895089508958CBD9DBD089520E3FC0166
:1003800020833296862F82958F706F706A3030F49A
:10039000605D6293682F8111F5CF0895695CF9CF94
:1003A000FC01818D928D0895833081F028F4813095
:1003B00099F08230A9F008958730A9F08830C9F00B
:1003C0008430B1F4809180008F7D03C080918000E3
:1003D0008F7780938000089584B58F7784BD0895CA
:1003E00084B58F7DFBCF8091B0008F778093B00074
:1003F00008958091B0008F7DF9CF1F93CF93DF9345
:10040000282F30E0F901E85CFD4F8491F901EC5DA3
:10041000FD4FD491F901E05FFD4FC491CC23A9F0C9
:10042000162F81110E94D401EC2FF0E0EE0FFF1F78
:10043000E450FE4FA591B4918FB7F894EC9111114F
:1004400008C0D095DE23DC938FBFDF91CF911F9141
:100450000895DE2BF8CFCF93DF9390E0FC01EC5DA5
:10046000FD4F2491805F9D4FFC0184918823C9F04A
:1004700090E0880F991FFC01EE50FE4FA591B491BA
:10048000FC01E450FE4FC591D49161110DC09FB79E
:10049000F8948C91209582238C938881282328833B
:1004A0009FBFDF91CF910895623051F49FB7F894C8
:1004B0003C91822F809583238C93E8812E2BEFCF64
:1004C0008FB7F894EC912E2B2C938FBFEACF1F930C
:1004D000CF93DF93182FEB0161E00E942B0220974E
:1004E00039F460E0812FDF91CF911F910C94FD01D1
:1004F000CF3FD10511F461E0F5CFE12FF0E0E85CEA
:10050000FD4FE491E33031F140F4E130B1F0E230FD
:10051000E1F0C038D1057CF7E4CFE73029F1E830CD
:1005200059F1E430B1F780918000806280938000BF
:10053000D0938B00C0938A0004C084B5806884BDCA
:10054000C7BDDF91CF911F91089584B5806284BDAE
:10055000C8BDF7CF80918000806880938000D093E1
:100560008900C0938800EDCF8091B00080688093AF
:10057000B000C093B300E5CF8091B000806280935B
:10058000B000C093B400DDCF8E3008F08E5087707D
:10059000806480937C0080917A00806480937A00EC
:1005A00080917A0086FDFCCF80917800909179004F
:1005B00008953FB7F8948091C7039091C803A09124
:1005C000C903B091CA0326B5A89B05C02F3F19F0F7
:1005D0000196A11DB11D3FBFBA2FA92F982F8827C3
:1005E000BC01CD01620F711D811D911D42E0660F9E
:1005F000771F881F991F4A95D1F708958F929F9270
:10060000AF92BF92CF92DF92EF92FF926B017C018B
:100610000E94D9024B015C01C114D104E104F10430
:10062000B9F00E94D902681979098A099B09683EC4
:1006300073408105910580F321E0C21AD108E108D9
:10064000F10888EE880E83E0981EA11CB11CE4CF4F
:10065000FF90EF90DF90CF90BF90AF909F908F90E2
:1006600008952FB7F8946091C3037091C4038091EB
:10067000C5039091C6032FBF0895CF92DF92EF92EA
:10068000FF920F931F93CF93DF936B017C018A013D
:10069000809183059091840597FF21C00E943103CA
:1006A000E3EDF4E050E040E026E1249FD001259FF7
:1006B000B00D1124AD52BB4FED01322F19923A9576
:1006C000E9F760837183828393834F5F5F4F7696F0
:1006D0004830510551F7109284051092830580919E
:1006E00083059091840508978CF4E3EDF4E0D0E065
:1006F000C0E084819581892B61F486819781892B63
:1007000041F4F80180819181009749F4CFEFDFEF48
:100710002AC021967696C830D10559F7F7CF26E141
:100720002C9F80012D9F100D11240D521B4FF8019D
:10073000C386D486E586F686958384831286108ADE
:10074000178681E0838B0E943103F80160837183F7
:100750008283938380918305909184050196909381
:10076000840580938305CE01DF91CF911F910F9176
:10077000FF90EF90DF90CF9008954F925F926F922D
:100780007F92AF92BF92CF92DF92EF92FF920F9340
:100790001F93CF93DF93EC016B017B01E40EF51EF9
:1007A0008B015801AC18BD080E151F0511F10E94F0
:1007B0003103688779878A879B87E881F98102847A
:1007C000F385E02DCE01099597FF23C00E943103E8
:1007D000488459846A847B84641975098609970959
:1007E0004C805D806E807F80641575058605970559
:1007F00020F3C501DF91CF911F910F91FF90EF90F2
:10080000DF90CF90BF90AF907F906F905F904F90B0
:100810000895F80181938F01C4CFAF92BF92CF9218
:10082000DF92EF92FF920F931F93CF93DF936C01B0
:100830007B018B01040F151FEB015E01AE18BF0891
:10084000C017D10759F06991D601ED91FC91019043
:10085000F081E02DC6010995892B79F7C501DF915B
:10086000CF911F910F91FF90EF90DF90CF90BF90AD
:10087000AF900895FC01538D448D252F30E0842FD7
:1008800090E0821B930B541710F0CF9608950197B8
:100890000895FC01918D828D981761F0A28DAE0FA5
:1008A000BF2FB11D5D968C91928D9F5F9F73928F2C
:1008B00090E008958FEF9FEF0895FC01918D828D58
:1008C000981731F0828DE80FF11D858D90E0089525
:1008D0008FEF9FEF0895FC01918D228D892F90E07D
:1008E000805C9F4F821B91098F739927089588EE32
:1008F00093E00E946B0421E0892B09F420E0822F11
:10090000089580E090E0892B29F00E9477048111FE
:100910000C9400000895FC01A48DA80FB92FB11DFF
:10092000A35ABF4F2C91848D90E001968F73992725
:10093000848FA689B7892C93A089B1898C91837003
:1009400080648C93938D848D981306C00288F389FC
:10095000E02D80818F7D80830895EF92FF920F9329
:100960001F93CF93DF93EC0181E0888F9B8D8C8D5B
:1009700098131AC0E889F989808185FF15C09FB74F
:10098000F894EE89FF896083E889F9898081837012
:10099000806480839FBF81E090E0DF91CF911F91C1
:1009A0000F91FF90EF900895F62E0B8D10E00F5FE2
:1009B0001F4F0F731127E02E8C8D8E110CC00FB6B8
:1009C00007FCFACFE889F989808185FFF5CFCE0150
:1009D0000E948B04F1CFEB8DEC0FFD2FF11DE35A3C
:1009E000FF4FF0829FB7F8940B8FEA89FB898081D3
:1009F0008062CFCF682F88EE93E00C94AD04CF9344
:100A0000DF93EC01888D8823B9F0AA89BB89E88936
:100A1000F9898C9185FD03C0808186FD0DC00FB6DC
:100A200007FCF7CF8C9185FFF2CF808185FFEDCF5A
:100A3000CE010E948B04E9CFDF91CF9108951F93DF
:100A4000CF93DF93C1E0C093E702882399F1D0915F
:100A5000B8001091BA008091BC008A7B8093BC00E2
:100A600060E082E10E94FD0160E083E10E94FD01FF
:100A700010922C03C0932E0310922D0361E082E1AB
:100A80000E94FD0161E083E10E94FD018091B900B7
:100A90008E7F8093B9008091B9008D7F8093B900DB
:100AA00088E48093B80085E48093BC001093BA007A
:100AB000D093B800DF91CF911F9108952091080342
:100AC000260F3327331F21323105ECF420912C03FC
:100AD000FC0190E080E0243069F082E00895A0916C
:100AE00008032191AC0148515D4FA40FB52FB11DF2
:100AF0002C930196861798F380910803680F6093F2
:100B0000080380E0089581E008958FEF9FEF089536
:100B10008FEF9FEF08958091E10290E0919581958C
:100B200091090895CF92DF92EF92FF920F931F9356
:100B3000CF93DF937C01CB018A012091E002222335
:100B400089F0EB016B01C40ED51ECC15DD0569F0F3
:100B50006991D701ED91FC910190F081E02DC701E1
:100B60000995F3CF642F0E945E05C801DF91CF91F4
:100B70001F910F91FF90EF90DF90CF900895CF934A
:100B8000DF931F92CDB7DEB769832091E002222365
:100B9000F9F02091DF02203258F021E030E0FC0132
:100BA0003383228390E080E00F90DF91CF9108950E
:100BB0008091DE02E82FF0E0E254FD4F99819083AE
:100BC0008F5F8093DE028093DF0281E090E0ECCFC4
:100BD00061E0CE0101960E945E05F7CFCF92DF92D1
:100BE000EF92FF920F931F93CF93DF93FC01C48189
:100BF00021E02093E002C093BD021092DE02109229
:100C0000DF028385682B85E894E00E94BF05D091C0
:100C1000DF02D13208F092C00E94D9026B017C0140
:100C200080912C03811165C082E080932C0381E0C8
:100C300080932E038FEF80932B0310925003D09359
:100C40004F03AEEBB2E0EFE2F3E080E0D81385C0F3
:100C50001092510380915103CC0FC82BC0935103C4
:100C600080912D03813009F07CC010922D030E94E9
:100C7000D9026B017C01809151038093BB0080916C
:100C8000E3029091E402A091E502B091E602892B83
:100C90008A2B8B2B99F00E94D9020091E3021091CC
:100CA000E4022091E5023091E6026C197D098E097B
:100CB0009F090617170728073907E0F18091BC0044
:100CC00083FDD9CF85EC8093BC000E94D9026B01D3
:100CD0007C0180912C03823009F445C080912B0364
:100CE0008F3F61F180912B03803241F180912B0382
:100CF00025C08091E3029091E402A091E502B091B9
:100D0000E602892B8A2B8B2B09F48ACF0E94D90209
:100D10000091E3021091E4022091E5023091E60295
:100D20006C197D098E099F090617170728073907CF
:100D300008F076CF8091E2020E941F051092DE0239
:100D40001092DF021092E002DF91CF911F910F917C
:100D5000FF90EF90DF90CF9008959D9191938F5FDA
:100D600075CF85EEB0CF8091E3029091E402A0911F
:100D7000E502B091E602892B8A2B8B2B09F4A9CFCF
:100D80000E94D9020091E3021091E4022091E50251
:100D90003091E6026C197D098E099F090617170725
:100DA0002807390708F095CFC5CFFC0120812EBD5B
:100DB0009B012150310941F051810DB407FEFDCF57
:100DC0004EB55EBD4193F5CF61507109860F971FF7
:100DD0000DB407FEFDCF2EB5FC0120830895E091F0
:100DE0005303F0915403808190915203892B8083A7
:100DF0000895E0915303F091540390818091520340
:100E000080958923808308958EBD00000DB407FE70
:100E1000FDCF8EB50895AF92BF92CF92DF92EF9241
:100E2000FF920F931F93CF93DF93CDB7DEB7289731
:100E30000FB6F894DEBF0FBECDBF8C017B016A01F7
:100E40008091E7038333E1F45801A40EB51EA01688
:100E5000B10609F46FC00E94F90680EF0E940407F2
:100E6000812F0E940407802F0E9404070F5F1F4FED
:100E7000F70181917F010E9404070E94EF06E7CFEE
:100E80005B01A40EB51E8433C1F40E94F9061983D8
:100E90000A838D2D80688B83CC8264E070E0CE0164
:100EA00001960E94D506AE14BF0409F441C0F701B3
:100EB00081917F010E940407F6CF0E94F9060F3F3F
:100EC000110509F028F419820A8384E08B830CC091
:100ED00017FD17C019820A8333E0169507953A95D6
:100EE000E1F7007E0C600B8386E0C816D104A0F504
:100EF000F701DE011496EA15FB0599F081918D93B7
:100F0000FACFC80126E0969587952A95E1F7807E6D
:100F100019830A830115104C10F48461D7CF8C61BA
:100F2000D5CFB6016D5F7F4FCE0101960E94D506E9
:100F30000E94EF06C60128960FB6F894DEBF0FBEDA
:100F4000CDBFDF91CF911F910F91FF90EF90DF9078
:100F5000CF90BF90AF90089563E070E0CE0101960E
:100F60000E94D506F70181917F010E940407AE140B
:100F7000BF04C1F7DDCFCF93DF931F92CDB7DEB7AC
:100F8000898341E050E0BE016F5F7F4F90E080E0D9
:100F90000E940B070F90DF91CF91089590E0209170
:100FA000E703233339F40C96982F990F990F990F73
:100FB00080E008954896F8CFDA01E0915603F0E01A
:100FC000FE2FEE27E60FF71F90E0982F8827A90144
:100FD000BD018E0F9F1F0C940B07CF93DF9300D0A2
:100FE000CDB7DEB779836A8322E030E0AE014F5F90
:100FF0005F4F60E170E00E94DC070F900F90DF917F
:10100000CF910895CF93DF9300D0CDB7DEB779832A
:101010006A8322E030E0AE014F5F5F4F64E070E032
:101020000E94DC070F900F90DF91CF910895CF932E
:10103000DF931F92CDB7DEB72091560330E0322FF9
:101040002227260F371F90E0982F8827498341E0F9
:1010500050E0BE016F5F7F4F820F931F0E940B070E
:101060000F90DF91CF910895CF93DF931F92CDB76B
:10107000DEB76983DC01ED91FC910280F381E02D04
:1010800041E050E0BE016F5F7F4F09950F90DF9107
:10109000CF9108950895FC019485FB0184859813F0
:1010A00003C081E0943008F080E00895CF93DF938F
:1010B0001F92CDB7DEB76983DC01ED91FC91028010
:1010C000F381E02D41E050E0BE016F5F7F4F099555
:1010D0000F90DF91CF9108950895FF920F931F9382
:1010E000CF93DF93EB01FC01178A168A2A81211125
:1010F00009C02B81211106C02C81211103C02D8133
:10110000222301F141155105E9F08A01FC01F08C1F
:1011100080E591E00E94BB01AE014E5F5F4F24E08D
:1011200030E06CE070E08F2D0E94DC07B8018F2D5D
:101130000E94ED0781E090E0DF91CF911F910F9128
:10114000FF90089580E0F7CFFC0184859585089590
:10115000FC018489958908952BEC31E0FC013183F1
:101160002083FB014089518962897389FC01428394
:101170005383648375830895DC01ED91FC91048CA5
:10118000F58DE02D099490E080E008958EE00E94B6
:10119000C402BC01990F880B990B0E945A312AE0B6
:1011A00038E240EA5BE30E94B93120E030E048ECED
:1011B00052E40E94B931089590E080E00E94FA0460
:1011C00090E080E00C94FA0490E080E00E94FA0441
:1011D00081E090E00C94FA04CF9380E390E00E94C9
:1011E000FA0464E670E080E090E00E94FE0288EE7F
:1011F00093E00E946B04029794F088EE93E00E94C3
:101200004904C82F8093BC0288EE93E00E944904F1
:1012100020E03C2FA901482BCA01CF91089590E00E
:1012200080E0FBCFEF92FF920F931F93CF93DF935A
:1012300000D000D000D0CDB7DEB7DC01AB011896EE
:101240006D917C9119978D919C911197FC01208152
:10125000318161157105B9F0D9015096ED91FC917C
:10126000099521E0019709F020E0822F26960FB61C
:10127000F894DEBF0FBECDBFDF91CF911F910F91CC
:10128000FF90EF900895F901E684F7842BEC31E0AC
:101290003A83298314960D911D912D913C911797B6
:1012A0000B831C832D833E83BE016F5F7F4FF7014D
:1012B000D7CFFC019485992369F080819181DC016D
:1012C000ED91FC910688F789E02D099591E0811157
:1012D00001C090E0892F0895DC011C961C921C9798
:1012E0008D919C91009739F0DC01ED91FC9104887F
:1012F000F589E02D09940895FC01768765870895A6
:10130000DC01ED91FC9102A0F3A1E02D099591E0A3
:1013100089270895862F089581E08627089521E082
:10132000FC018485843008F020E0822F0895089520
:101330008F929F92AF92BF92EF92FF920F931F9363
:10134000CF93DF93CDB7DEB7A1970FB6F894DEBF8A
:101350000FBECDBF7C01FA01CB0119A2223008F4E7
:101360002AE08E010F5D1F4F822E912CB12CA12CF3
:10137000BF01A50194010E94E032F901CA016A305F
:1013800074F5605DD8016E938D01232B242B252BE2
:1013900079F790E080E0109789F0FD01019000203E
:1013A000E9F73197AF014A1B5B0BD701ED91FC9137
:1013B0000280F381E02DB801C7010995A1960FB60F
:1013C000F894DEBF0FBECDBFDF91CF911F910F917B
:1013D000FF90EF90BF90AF909F908F900895695CC1
:1013E000D1CFFC0101900020E9F73197AF01481BF4
:1013F000590BBC0187EC94E00C940D040C944F2D18
:101400008F929F92AF92BF92CF92DF92EF92FF9214
:101410000F931F93CF93DF937C01EB016C0182E06C
:10142000C80ED11C4701E5E08E0E911C10E000E0D3
:10143000F60141916F0150E070E060E02AE0CE01DA
:101440000E9498095C01E881F9810190F081E02D0A
:101450006EE2CE0109958A0D9B1D080F191FC81455
:10146000D90431F7F701458150E070E060E02AE0EF
:10147000CE010E949809800F911FDF91CF911F919B
:101480000F91FF90EF90DF90CF90BF90AF909F9023
:101490008F9008950F931F93CF938C01C62F0E94B6
:1014A000EE056C2F6460C8010E94EE056C2F6B7F07
:1014B000C8010E94EE0583EC90E00197F1F7CF910F
:1014C0001F910F9108950F931F93CF93DF938C017A
:1014D000D62FC42F607F642B0E944A0A80E1D89FD8
:1014E000B00111246C2BC801DF91CF911F910F9196
:1014F0000C944A0ACF93DF93CDB7DEB728970FB687
:10150000F894DEBF0FBECDBF98E0EDE2F1E0DE0162
:10151000119601900D929A95E1F79091CF0496174C
:1015200008F46FEF262F30E0220F331F41E050E028
:101530004C0F5D1F240F351FF9016081680F606833
:1015400040E087EC94E028960FB6F894DEBF0FBE1B
:10155000CDBFDF91CF910C94630AFB018081918113
:101560000E947C2E892B81F081E090E00E94FA0499
:1015700081E090E00E94FA0461E087E00E947A0A2C
:101580008DEC91E00C94F10981E090E00E94FA0466
:1015900090E080E00E94FA0460E087E00E947A0A0E
:1015A00087ED91E0EFCFFB01808191810E947C2E3D
:1015B00021E0009709F420E02093BB02892B51F031
:1015C0000E94E40861E087E00E947A0A82EE91E0DE
:1015D0000C94F1090E94DC0860E088E00E947A0A1D
:1015E0008CEE91E0F5CFFB01808191810E947C2EF1
:1015F00021E0009709F420E02093BA02892B61F0E2
:1016000061E085E00E94FD0161E087E00E947A0AC6
:1016100086EF91E00C94F10960E085E00E94FD0105
:1016200061E087E00E947A0A8CEF91E0F3CFFB0142
:10163000808191810E947C2E892B61F061E084E0A1
:101640000E94FD0161E087E00E947A0A83E092E057
:101650000C94F10960E084E00E94FD0161E087E004
:101660000E947A0A8BE092E0F3CF41E00E94630A85
:1016700081E090E00895AF92BF92CF92DF92EF9217
:10168000FF920F931F93CF93DF9300D000D0CDB77D
:10169000DEB78C016B017A018091E7038333E9F4B3
:1016A0005B016801C40ED51EC016D106A9F10E94C7
:1016B000F9068FE00E940407812F0E940407802F03
:1016C0000E9404070F5F1F4F80E00E940407F5018E
:1016D00081935F010E94EF06E7CF843369F50E9492
:1016E000F90619830A838F2D8F778B83EC8264E050
:1016F00070E0CE0101960E94D506A70170E060E07F
:10170000C6010E947134E114F10421F0B701C60151
:101710000E94D5060E94EF06C7010F900F900F9010
:101720000F90DF91CF911F910F91FF90EF90DF907D
:10173000CF90BF90AF9008950E94F9060F3F11051A
:1017400009F030F419820A831B8263E070E0D1CF84
:1017500017FD0BC019820A8333E0169507953A9559
:10176000E1F7007E08600B83F0CFC80126E0969574
:1017700087952A95E1F7807E19830A830115104C1D
:1017800018F480618B83E1CF8861FCCFCF93DF9326
:101790001F92CDB7DEB72091560330E0322F2227BB
:1017A000260F371F90E0982F882741E050E0BE01B8
:1017B0006F5F7F4F820F931F0E943B0B89810F90B9
:1017C000DF91CF910895CF93C82F462F61E070E04D
:1017D0000E94170861E070E08C2F0E94C60B8111F7
:1017E000F9CFCF910895CF93C82F80E591E00E9463
:1017F000BB0168E070E08C2FCF910C94E30BCF938A
:10180000C82F80E591E00E94BB0160E170E08C2F61
:10181000CF910C94E30BCF93DF93EC01888D843050
:1018200020F40E94FF0B84E0888FDF91CF91089510
:10183000CF93C82F80E591E00E94BB0163E070E088
:101840008C2FCF910C94C60BCF93DF93EC018C853A
:101850008430D0F40E94180C843189F0882379F008
:10186000883169F021E08C3159F4E881F9810084F4
:10187000F185E02DCE01099521E0892B09F420E0C6
:10188000822FDF91CF91089580E0FBCFCF92DF923E
:10189000EF92FF92CF93DF93EC018C85843068F454
:1018A0000E94F30B0E9431036B017C018C850E9426
:1018B000180C811109C084E08C87DF91CF91FF90D3
:1018C000EF90DF90CF90089561E070E080E090E0CD
:1018D0000E94FE020E943103AB01BC014C195D095C
:1018E0006E097F098D859E85B0E0A0E048175907F5
:1018F0006A077B07D8F28C850E94FF0BDCCFCF9361
:10190000FC01C08D80E591E00E94BB0160E270E0C7
:101910008C2F0E94E30B62E070E08C2F0E94C60BBC
:1019200084FD16C062E070E08C2F0E94C60B83FF1E
:101930000AC048E162E070E08C2F0E94170880E046
:1019400090E0CF91089580E591E00E94BB01E3CF44
:1019500040E162E070E08C2F0E94170881E0F0CF38
:10196000CF93DF931F92CDB7DEB741E050E0BE01C9
:101970006F5F7F4F90E080E00E943B0B89810F906A
:10198000DF91CF910895CF93DF93C4E1D0E00E941F
:10199000B00C882361F061E070E080E090E00E948C
:1019A000FE022197A1F780E0DF91CF91089581E0B9
:1019B000FBCF1F93CF93DF931F92CDB7DEB7182FC6
:1019C00080E591E00E94BB01812F0E94CE0727E0B5
:1019D000129FF0011124E553FC4F228133813770AF
:1019E00041E050E0BE016F5F7F4F820F931F0E9466
:1019F0003B0B89810F90DF91CF911F910895FC01DE
:101A0000808D843040F4218D328D232B21F00E9473
:101A1000D90C90E008958FEF9FEF0895CF93DF9357
:101A2000FC012485243028F08FEF9FEFDF91CF91C8
:101A30000895EC010190F081E02D0084F185E02D06
:101A40000995892B89F38C850E94D90C90E0EECF03
:101A5000DA01E0915603F0E0FE2FEE27E60FF71FC4
:101A600090E0982F8827A901BD018E0F9F1F0C942D
:101A70003B0B8F929F92AF92BF92CF92DF92EF92E9
:101A8000FF921F93CF93DF93CDB7DEB72C970FB69E
:101A9000F894DEBF0FBECDBF2091E70314E02223F0
:101AA00039F16B017C0180E591E00E94BB015E0190
:101AB00027E0A20EB11C450110E063E070E0812F29
:101AC0000E94C60BF40181934F01882349F11F5FE7
:101AD000143099F710E0F50181915F018D31D9F053
:101AE0008831C9F08A518230B0F01F5F143099F705
:101AF000812F2C960FB6F894DEBF0FBECDBFDF91BD
:101B0000CF911F91FF90EF90DF90CF90BF90AF905B
:101B10009F908F90089560E170E0812F0E94E30B09
:101B2000A12EB12C83EE93E00197F1F742E870E02B
:101B300060E0812F0E9417084FEF62E070E0812F74
:101B40000E941708B601C114D10491F480912101BB
:101B50009091220101968115F0EC9F0708F45CC07A
:101B600090932201809321016091210170912201C3
:101B7000812F0E94020886E0E5E3F1E0DE01119684
:101B800001900D928A95E1F7F70183818F778C831D
:101B900084818D8385818E83A7014E5F5F4F24E012
:101BA00030E06CE070E0812F0E94DC07B601812FED
:101BB0000E94ED0726E030E0AE014F5F5F4F66E028
:101BC00070E0812F0E94DC0761E070E0812F0E94AD
:101BD000E30B27E02A9DC0012B9D900D11249C0151
:101BE00025533C4F7901F9011182108222E030E047
:101BF000AE01455F5F4F68E270E0812F0E94280DC3
:101C00008B859C85982789279827F7019383828362
:101C10001682158214826CCF80E090ECA1CFCF9217
:101C2000DF92EF92FF920F931F93CF93DF9300D039
:101C300000D000D0CDB7DEB78C016B017A01FC017A
:101C4000808D843010F40E94FF0B8BEC91E09A831E
:101C50008983F60182819381A481B5818B839C83E2
:101C6000AD83BE83B701CE0101960E94390DF80104
:101C7000808F8430A0F4F586E486128E118E81E088
:101C800026960FB6F894DEBF0FBECDBFDF91CF9181
:101C90001F910F91FF90EF90DF90CF90089580E01B
:101CA000EFCFAF92BF92CF92DF92EF92FF920F935E
:101CB0001F93CF93DF9300D000D000D0CDB7DEB715
:101CC000082F6B0180E591E00E94BB019E012F5F10
:101CD0003F4F7901590110E063E070E0812F0E94CD
:101CE000C60BF50181935F01882341F11F5F14301A
:101CF00099F710E0F70181917F018D31D1F08831A2
:101D0000C1F08A518230A8F01F5F143099F7812FFB
:101D100026960FB6F894DEBF0FBECDBFDF91CF91F0
:101D20001F910F91FF90EF90DF90CF90BF90AF90F9
:101D3000089560E170E0812F0E94E30BE12EF12C09
:101D400083EE93E00197F1F7402F70E060E0812F80
:101D50000E9417084FEF62E070E0812F0E94170881
:101D6000B601CD2889F4809121019091220101963C
:101D70008115F0EC9F0798F1909322018093210147
:101D80006091210170912201812F0E94020861E07F
:101D900070E0812F0E94E30B27E02E9DC0012F9D54
:101DA000900D11249C0125533C4F7901F9011182BA
:101DB000108222E030E0AE014B5F5F4F68E270E0DE
:101DC000812F0E94280D8D819E8198278927982731
:101DD000F7019383828316821582148298CF80E064
:101DE00090ECCACFCF92DF92EF92FF921F93CF93E6
:101DF000DF93EC017B016A018C85843048F40E94FA
:101E0000180C882319F08C850E94F30B84E08C87D2
:101E1000F70182819381A481B5810097A105B10565
:101E200051F490E080E0DF91CF911F91FF90EF900F
:101E3000DF90CF9008958F3F9F4FAF4FBF4F89F3F3
:101E40008091E703811103C084E08C87EACF70E0C2
:101E500060E081E20E94510E182F8C87843008F7D1
:101E600080E591E00E94BB01A7014E5F5F4F24E037
:101E700030E06CE070E0812F0E94DC07B601812F1A
:101E80000E94ED0764E070E0812F0E94E30B0E9446
:101E900031036B017C018C850E94180C873109F19C
:101EA0008C31F9F0882309F4BCCF0E943103AB01D7
:101EB000BC014C195D096E097F098D859E85B0E0D6
:101EC000A0E084179507A607B70738F061E070E037
:101ED00080E090E00E94FE02DECF8C850E94FF0B26
:101EE000B3CF81E090E09FCF0F931F93CF93DF9309
:101EF000EC018B01888D843010F40E94FF0B8091DF
:101F0000E703811107C094E0988FDF91CF911F9173
:101F10000F910895B80182E00E94510E888F84309D
:101F200030F41D870C871A8E198E81E0EECF80E089
:101F3000ECCF7F928F929F92AF92BF92CF92DF921F
:101F4000EF92FF920F931F93CF93DF9300D0CDB703
:101F5000DEB7782E8B014A01590122E030E0AE0154
:101F60004F5F5F4F64E270E00E94280DE980FA80C5
:101F7000FE24EF24FE24E00EF11E970137704091FD
:101F8000E703072D10E0433309F042C0085F1F4FFD
:101F9000102F0027110F110F110FC901800F911F72
:101FA0004733C9F1A9014A0D5B1D4130584098F1F2
:101FB00060E078E06B01C21AD30AA601B4010E9466
:101FC0000B07A5014C195D09B4016C0D7D1DC801FD
:101FD0000E940B07EA0CFB1CF982EA8222E030E047
:101FE000AE014F5F5F4F64E270E0872D0E94DC0717
:101FF0000F900F90DF91CF911F910F91FF90EF9075
:10200000DF90CF90BF90AF909F908F907F9008957A
:10201000005F1F4FBDCFA501B401DACFEF92FF9251
:102020001F93CF93DF9300D0CDB7DEB7182F22E0F8
:1020300030E0AE014F5F5F4F60E270E00E94280D1C
:10204000E980FA80FE24EF24FE2422E030E0AE0195
:102050004F5F5F4F60E270E0812F0E94280D898101
:102060009A81982789279827E816F90689F487E046
:10207000189FF0011124E553FC4FF582E482C7015B
:102080000F900F90DF91CF911F91FF90EF900895E7
:102090007C01DBCF1F93CF93DF93182F80E591E076
:1020A0000E94BB01812F0E940E10EC0163E070E0E2
:1020B000812F0E94C60B873121F08C3111F0D0E0C6
:1020C000C0E0CE01DF91CF911F910895CF93DF93B0
:1020D000EC018C85843060F40E94180C873111F07B
:1020E0008C3131F48C850E944A108115984088F318
:1020F000DF91CF910895FC018485843010F40C9415
:102100004A1090E080E008959F92AF92BF92CF92E4
:10211000DF92EF92FF920F931F93CF93DF938C0187
:102120005B01942EE52EFC01C688D788F08C80E5F3
:1021300091E00E94BB018F2D0E940E10C92DDE2D53
:102140008C179D0708F4EC019E01A501B6018F2DA7
:102150000E94990FF801868997898C0F9D1F978B94
:10216000868BCE01DF91CF911F910F91FF90EF9061
:10217000DF90CF90BF90AF909F9008958F929F92E5
:10218000AF92BF92CF92DF92EF92FF920F931F9385
:10219000CF936C015B018A01FC01C485C430F0F56A
:1021A0007A014130584018F0E12C88E0F82E80E5A3
:1021B00091E00E94BB018C2F0E940E104C0163E045
:1021C00070E08C2F0E94C60B873111F08C3149F5DD
:1021D0008E149F0460F380E591E00E94BB0197019B
:1021E000A50170E060E08C2F0E94990F60E270E022
:1021F0008C2F0E94E30B62E070E08C2F0E94C60BD4
:1022000084FD17C063E070E08C2F0E94C60B811123
:102210000BC081E090E0F6019383828310E000E040
:1022200010C0F12CE12CD7CF80E591E00E94BB01DA
:10223000E2CF40E162E070E08C2F0E941708EF28A7
:1022400041F3C801CF911F910F91FF90EF90DF9064
:10225000CF90BF90AF909F908F900895FF920F9373
:102260001F93CF93DF9300D0CDB7DEB7F82E22E0D7
:1022700030E0AE014F5F5F4F66E270E00E94280DD4
:1022800009811A8110270127102722E030E0AE01D2
:102290004F5F5F4F66E270E08F2D0E94280D8981AD
:1022A0009A819827892798270817190749F4C801A0
:1022B0000F900F90DF91CF911F910F91FF90089594
:1022C0008C01E3CF1F93CF93DF93182F87E0189FE4
:1022D000E0011124C553DC4F88819981009761F496
:1022E00080E591E00E94BB01812F0E942E112E817A
:1022F000821B910999838883DF91CF911F91089563
:10230000FC018485843010F40C94621190E080E02C
:1023100008954F925F927F928F929F92AF92BF9259
:10232000CF92DF92EF92FF920F931F93CF93DF93A1
:1023300000D0CDB7DEB7782E6B014A01A82EB12CA4
:1023400027E0829FC0011124FC01E553FC4F7F016F
:102350000081118180E591E00E94BB0108151905FB
:1023600054F4872D0E942E11F70126818C01021B47
:102370001109118300830115110529F563E070E04F
:10238000872D0E94C60B843159F0882349F001E063
:1023900010E08C3111F410E000E011950195110965
:1023A000C8010F900F90DF91CF911F910F91FF9077
:1023B000EF90DF90CF90BF90AF909F908F907F90E5
:1023C0005F904F900895801691060CF4840187E089
:1023D0008A9DF0018B9DF00D1124E553FC4FE280A6
:1023E000F380C114D10451F12701F7E05F22872D5A
:1023F0000E94CE07840D951D2091E703273309F431
:1024000053C09801240D351D2130384008F44CC0CC
:1024100020E038E0490184189508A401B6010E9423
:102420003B0B2601480C591C6801C818D908872D98
:102430000E94CE07A601B2010E943B0BE00EF11EE6
:1024400087E08A9DF0018B9DF00D1124E553FC4F30
:10245000F382E28220813181201B310B3183208382
:102460008681800F912F911D8A3F910510F4232BB7
:10247000F1F487E08A9DF0018B9DF00D1124E55366
:10248000FC4F1682F982EA8222E030E0AE014F5F13
:102490005F4F68E270E0872D0E94DC0760E470E027
:1024A000872D0E94E30B7CCFA801B601C5CF8683A0
:1024B00077CFCF93DF93FC01218D328D211531052C
:1024C00029F48FEF9FEFDF91CF910895EC01808D7C
:1024D0004217530708F0A9010E948911181619061E
:1024E00084F7298D3A8D281B390B3A8F298FEBCF32
:1024F0000F931F93CF93DF931F92CDB7DEB7FC01ED
:10250000218D328D232B41F48FEF9FEF0F90DF91C0
:10251000CF911F910F9108958C0141E050E0BE01D1
:102520006F5F7F4FFC01808D0E948911181619067C
:102530005CF7F801818D928D0197928F818F89814F
:1025400090E0E4CFCF93DF931F92CDB7DEB741E0A9
:1025500050E0BE016F5F7F4FFC0184850E948911AE
:102560001816190634F4898190E00F90DF91CF910D
:1025700008958FEF9FEFF9CFFC018485843010F42C
:102580000C94891190E080E008950F931F93CF93EE
:10259000DF9300D0CDB7DEB7FC0124852430E0F412
:1025A0008C0180E591E00E94BB0122E030E0AE01A9
:1025B0004F5F5F4F60E170E0F80184850E94280D55
:1025C00089819A819827892798270F900F90DF910A
:1025D000CF911F910F91089590E080E0F6CF0F9377
:1025E0001F93CF93DF9300D0CDB7DEB7FC012485D6
:1025F0002430E0F48C0180E591E00E94BB0122E0F0
:1026000030E0AE014F5F5F4F64E070E0F801848519
:102610000E94280D89819A819827892798270F90F1
:102620000F90DF91CF911F910F91089590E080E07E
:10263000F6CFDC018BEC91E08D939D9384E0FB0160
:1026400001900D928A95E1F70895EF92FF920F9312
:102650001F93CF93DF9300D000D0CDB7DEB78C01AE
:102660007B01FB0184858430A8F08BEC91E0F801BC
:10267000918380831282138214821582C8010F9085
:102680000F900F900F90DF91CF911F910F91FF90BE
:10269000EF90089580E591E00E94BB0124E030E0D6
:1026A000AE014F5F5F4F6CE070E0F70184850E94E0
:1026B000280DBE016F5F7F4FC8010E941913DECF46
:1026C0000F931F93CF93DF93CDB7DEB728970FB645
:1026D000F894DEBF0FBECDBF8C01D80159964D9145
:1026E0005C915A974115510551F0ED91FC91048C84
:1026F000F58DE02D70E060E0C8010995EECFF8019E
:10270000808D0E946211892BB1F148E050E0BE013A
:102710006F5F7F4FD80158968C910E9489111816CF
:102720001906F4F4D801509684E0FE013196019028
:102730000D928A95E1F78D8190E0982F88272E8160
:10274000820F911DF801958B848B8F81282F30E0AB
:10275000322F22278885820F932F911D928F818F90
:1027600028960FB6F894DEBF0FBECDBFDF91CF9194
:102770001F910F91089590E080E0F2CF4F925F9209
:102780006F927F928F929F92AF92BF92CF92DF9281
:10279000EF92FF920F931F93CF93DF93CDB7DEB7E6
:1027A00063970FB6F894DEBF0FBECDBF7C016B01FF
:1027B0003A01FB0120E090E080E06AE031913323B0
:1027C00009F461C040ED430F4A3008F04DC0689FE6
:1027D000A001699F500D1124CA01C097830F911D5C
:1027E00037FD9A958F3F910549F340F3F7014281F8
:1027F0005381648175818091BD049091BE04A09144
:10280000BF04B091C004481759076A077B0709F451
:102810000DC28701085F1F4F0E9431036F70772739
:102820007C5FC8010E94740F813009F004C28BECF8
:1028300091E09A838983F70182819381A481B58194
:102840008B839C83AD83BE8345E350E0BE016F5F05
:102850007F4FC8010E946D08892BA9F5D12CC12C8E
:10286000C8010E940B0C17C03E3209F0BFCF2330C5
:1028700009F4BCCFD301A20FB11D12968C932F5F28
:1028800090E080E09BCF233009F0B0CFF301858347
:10289000CC24C394D12CC60163960FB6F894DEBF46
:1028A0000FBECDBFDF91CF911F910F91FF90EF90A1
:1028B000DF90CF90BF90AF909F908F907F906F9060
:1028C0005F904F9008950E943103F70177836683EC
:1028D00042E050E0B7016A5F7F4FC8010E94841058
:1028E00081E090E09A83898342E050E0BE016F5F0F
:1028F0007F4FC8010E94841080E091E09A83898311
:1029000042E050E0BE016F5F7F4FC8010E9484101B
:102910001A82198242E050E0BE016F5F7F4FC8010A
:102920000E94841042E050E0BE016F5F7F4FC801FB
:102930000E94841042E050E0BE016F5F7F4FC801EB
:102940000E9484105601F6018081882301F16501FF
:10295000F60181912F01882311F08E32B1F44601E6
:102960008A189B081814190474F48D8641E050E00D
:10297000BE01635F7F4FC8010E948410A401B501AE
:10298000C8010E9484105201DECF6201E1CF1D8692
:1029900041E050E0BE01635F7F4FC8010E94841098
:1029A000C12CDD24D394DA82C98242E050E0BE011A
:1029B0006F5F7F4FC8010E948410DA82C98242E0B3
:1029C00050E0BE016F5F7F4FC8010E948410C801B4
:1029D0000E947F0C892B09F441CFF3E0AF2EB12C7C
:1029E000230122E0420E511CD4C0F70142815381E1
:1029F00064817581808D918DA28DB38D48175907A3
:102A00006A077B0709F008C1848D958DC59709F089
:102A100003C181A192A15DEFC52EDD24DA940C974C
:102A20000CF4ADC04CE050E0BE016F5F7F4FC801B9
:102A30000E9459128B819C819827892798279A8B0D
:102A4000898BF7014681578129813A8142175307C3
:102A500009F0E7C097FFE5C08F7092703BEFC32E7F
:102A6000DD24DA94892B09F08AC06F80788476247B
:102A7000672476242AEFC22EDD24DA9461147104CF
:102A800009F47DC0D12CC12C8D819E819827892786
:102A90009827C816D906F8F441E050E0BE01635FFC
:102AA0007F4FC8010E9459124D85442331F050E0F8
:102AB00070E060E0C8010E9459128D858111ECCF51
:102AC00044E050E070E060E0C8010E945912FFEF5E
:102AD000CF1ADF0AD9CF912C812C41E050E0BE0102
:102AE0006D5E7F4FC8010E9459124B89842F807CF4
:102AF00009F06CC0442331F050E070E060E0C801A0
:102B00000E9459128B898111E8CF42E050E0BE014A
:102B1000615F7F4FC8010E94591242E050E0BE0140
:102B2000635F7F4FC8010E94591244E050E070E09B
:102B300060E0C8010E94591242E050E0BE016F5EA1
:102B40007F4FC8010E9459128F85988949895A89F7
:102B50008115914009F043C0CD84DE84DC24CD246E
:102B6000DC2481E0C816D104D1F54115544009F0A8
:102B70004AC044E050E0B201C8010E94591221E06D
:102B8000A21AB10809F46CCEFFEFCF16DF0609F0E8
:102B900067CE0E9431033B014C01C8010E946013C3
:102BA000181619060CF421CF0E9431036619770913
:102BB00088099909693873418105910548F562E3EF
:102BC00070E080E090E00E94FE02E7CF41E050E03C
:102BD00070E060E0C8010E9459121B8A93CF54270D
:102BE0004527542770E060E0C8010E945912FFEFAA
:102BF0008F1A9F0A6814790409F06FCF96EFC92ED7
:102C0000DD24DA94BCCFE7EFCE2EDD24DA94B7CF03
:102C1000CC24CA94DC2CB3CF6EEFC62EDD24DA941C
:102C2000AECF4CEFC42EDD24DA94A9CF8EEFC82EA0
:102C3000DD24DA9430CED12CC12C2DCECF92DF9270
:102C4000EF92FF920F931F93CF93DF93CDB7DEB731
:102C5000AF970FB6F894DEBF0FBECDBF7C016A01FF
:102C60000BEC11E01A8309831C861B8688EE93E027
:102C7000A0E0B0E08D879E87AF87B88B8FE391E0AF
:102C80009A878987188F0F8B198E1A8E1B8E1C8E30
:102C900084E089A31BA70AA71CA61DA61EA61FA623
:102CA0008091B1049091B204A091B304B091B404A6
:102CB0008EA39FA3A8A7B9A78B839C83AD83BE8354
:102CC00018861F82AE01465D5F4FCE0101960E94BD
:102CD000BE1381309105B1F4D701ED91FC910488C8
:102CE000F589E02D1DA30CA38CA59DA5AEA5BFA5C0
:102CF0008EA39FA3A8A7B9A7A601BE016C5D7F4FB5
:102D0000C7010995AF960FB6F894DEBF0FBECDBFD1
:102D1000DF91CF911F910F91FF90EF90DF90CF90B7
:102D20000895CF92DF92EF92FF920F931F93CF936C
:102D3000DF93CDB7DEB7AF970FB6F894DEBF0FBE07
:102D4000CDBF8C016B017A018BEC91E09A83898372
:102D50001B821C821D821E821C861B8648EE53E04D
:102D600060E070E04D875E876F87788B2FE331E0FE
:102D70003A872987988F8F8B198E1A8E1B8E1C8EFF
:102D800024E029A39BA78AA71CA61DA61EA61FA6F2
:102D9000D8011C968C91843060F40E94180C882312
:102DA00021F0F80184850E94F30B84E0D8011C9681
:102DB0008C938091B1049091B204A091B304B0912E
:102DC000B4048EA39FA3A8A7B9A78B839C83AD83CC
:102DD000BE8318861F82AE01465D5F4FB601CE01ED
:102DE00001960E94BE130097C1F0D801ED91FC91AD
:102DF0000684F785E02D8BEC91E09DA38CA38CA538
:102E00009DA5AEA5BFA58EA39FA3A8A7B9A7A701FF
:102E1000BE016C5D7F4FC8010995AF960FB6F8945F
:102E2000DEBF0FBECDBFDF91CF911F910F91FF90FD
:102E3000EF90DF90CF9008957F928F929F92AF9204
:102E4000BF92CF92DF92EF92FF920F931F93CF9397
:102E5000DF93CDB7DEB7A6970FB6F894DEBF0FBEEF
:102E6000CDBF8C01762E942E852E20E2A22ECE018F
:102E700001967C01DC01EA2D1D92EA95E9F76801D3
:102E8000F3E4CF0ED11C8BEC91E09AA389A38FEFD2
:102E90008BA38CA38DA38EA343E450E0BE016F5D92
:102EA0007F4FC6010E946D08019609F4BFC081E002
:102EB00089838A8386E0B82EBB821C82D80114964F
:102EC0006D917D918D919C9117970E9426336D8312
:102ED0007E838F83988789869A8680E890E09C8796
:102EE0008B874CE150E0B701C6010E948410FE01BF
:102EF00037968AE1DF011D928A95E9F74801B8E02B
:102F00008B0E911CF401D70101900D92BA94E1F758
:102F100040E150E0B701C6010E948410F701119210
:102F2000AA94E9F796E0A92EB12C40E250E0B7014F
:102F3000C6010E948410F1E0AF1AB108B1F783E630
:102F4000898392E89A8393E59B838C8385E38D83C1
:102F500081E08E837F829DE3988797E099878A87B7
:102F600086E0F401DE011B9601900D928A95E1F74F
:102F70008CE0898B8A8B63E172E0CE0143960E94DC
:102F80008134D8011B966C91CE0149960E94BE01F6
:102F9000F8016485CE014B960E94BE01D8011D96B2
:102FA0006C91CE014D960E94BE014EE150E0B701FA
:102FB000C6010E948410B3E07B121EC082E38983A5
:102FC00084E08A83F80196859B8397859C8390890A
:102FD0009D8391899E8396E39F838887828D8987CD
:102FE000838D8A87848D8B87858D8C874CE050E01C
:102FF000B701C6010E94841087E3898386E08A8333
:1030000091E09B8393E09C838D838FE08E838AE3A2
:103010008F838BE388878FEF898749E050E0B70182
:10302000C6010E948410C6010E947F0CA6960FB6AE
:10303000F894DEBF0FBECDBFDF91CF911F910F91EE
:10304000FF90EF90DF90CF90BF90AF909F908F90C8
:103050007F9008950F931F93CF93DF93EC01FB01B3
:1030600001900020E9F78F01061B170B8A819B81D5
:10307000A801480F591F2C813D812417350768F09E
:1030800028813981A801820F931F0E9468344A81E8
:103090005B81400F511F5B834A83DF91CF911F916A
:1030A0000F91089585ED8093BC008091E30290918B
:1030B000E402A091E502B091E6020796A11DB11DC0
:1030C00023E0B695A795979587952A95D1F72091F6
:1030D000BC0024FD03C010922C0308954091E3022C
:1030E0005091E4026091E5027091E602452B462B77
:1030F000472B69F30097A105B10541F02AE22A9513
:10310000F1F700C00197A109B109E1CF8091E20276
:103110000C941F053F924F925F926F927F928F9215
:103120009F92AF92BF92CF92DF92EF92FF920F9356
:103130001F93CF93DF93CDB7DEB7EA970FB6F8941E
:10314000DEBF0FBECDBF7C012A013B0169010E9499
:1031500031034B015C0187010D5B1F4FC8010E94C9
:103160006013181619069CF00E943103681979093A
:103170008A099B09461657066806790608F466C14F
:1031800062E370E080E090E00E94FE02E7CF42E25E
:1031900050E0BE016F5F7F4FC8010E9459128981C4
:1031A0008230D1F0312C832DEA960FB6F894DEBF31
:1031B0000FBECDBFDF91CF911F910F91FF90EF9088
:1031C000DF90CF90BF90AF909F908F907F906F9047
:1031D0005F904F903F900895F801848995898334DA
:1031E000910501F76D817E818F8198850E9426333C
:1031F0004B015C01F60180829182A282B38246E09B
:1032000050E0B701685F7F4FCE014D960E945B345E
:10321000892B41F6F70180819181A281B3818816C3
:103220009906AA06BB0608F4BDCF84819581A681C4
:10323000B78188159905AA05BB0508F4B3CF89891C
:103240009A89AB89BC8986879787A08BB18B4EEC16
:1032500050E070E060E0C8010E945912312CC701B3
:10326000829698AB8FA7F701B696FAABE9AB0896B2
:103270009CAB8BAB67019AE1C90ED11CBD96FEAB2E
:10328000EDABC701429698AF8FABFD97FAAFE9AFB0
:103290004701FEE18F0E911CF801818D928D181669
:1032A00019060CF080CFC8010E9478128333910573
:1032B00009F4B2C014F58130910509F464C044F4F6
:1032C000892B51F3C8010E947812AC01552775C0B3
:1032D0008330910509F462C00697A1F7C8010E94E6
:1032E0007812B82E44E050E0B401C8010E9459128F
:1032F000EB2DE450FF0BAF0160C08A33910509F458
:103300005FC084F585339105B1F1C697D9F6C80140
:103310000E9478125C01B601CE0189960E941913B1
:103320008BA59CA5ADA5BEA5892B8A2B8B2BB1F0B7
:10333000EDA9FEA94080518062807380B601CE0164
:1033400083960E9419138DA19EA1AFA1B8A5A501D6
:10335000481659066A067B0609F0B8CF44E050E0EB
:10336000B60118C08B33910509F440C08F3F910519
:1033700009F492CFA7CFC8010E947812C8010E9419
:103380007812382E89CFC8010E94781244E050E0AC
:103390006FA978ADC8010E9459127ECFC8010E9462
:1033A0007812B82E44E050E069AD7AADC8010E94B1
:1033B00059128B2D8450990BAC0170E060E0EACF7C
:1033C000C8010E94781244E050E069A97AA9C801B6
:1033D0000E945912F70166A177A180A591A50E94CC
:1033E000263366A377A380A791A756CFC8010E9472
:1033F000781244E050E06BA97CA9C8010E945912E0
:10340000F70162A573A584A595A50E94263362A73E
:1034100073A784A795A740CFC8010E94781244E003
:1034200050E06FA578A9C8010E945912F70162A166
:1034300073A184A195A10E94263362A373A384A3E0
:1034400095A366A777A780AB91AB26CF33243A9498
:10345000AACE0F931F93CF93DF93CDB7DEB72897F4
:103460000FB6F894DEBF0FBECDBF8C01CB014AE092
:10347000BE016F5F7F4F0E94CA2EBE016F5F7F4FFC
:10348000C8010E942A1828960FB6F894DEBF0FBE16
:10349000CDBFDF91CF911F910F9108953F924F9231
:1034A0005F926F927F928F929F92AF92BF92CF92D4
:1034B000DF92EF92FF920F931F93CF93DF93CDB7DD
:1034C000DEB7A1970FB6F894DEBF0FBECDBF5C018B
:1034D0000DB71EB719A308A360E070E0CB010E94EE
:1034E000FE02D50191968D919C919297912C029715
:1034F00009F498C090968C9190978F5F90968C93DA
:1035000090975E962D913C91232B19F099249394DA
:1035100082C08330D8F7F501828593850E945909CE
:10352000882309F440C38E010F5F1F4F3801D50176
:103530001A96ED91FC9180819181DC01ED91FC91D5
:103540000084F185E02D0995181619060CF02BC39F
:10355000D5011A96ED91FC9145E050E0BE01695EFF
:103560007F4F808191810E94BD03009701F30597F1
:1035700009F04AC0888D998D982789279827998FB7
:10358000888FEA8CFB8CFE24EF24FE24FB8EEA8ECF
:10359000892BD1F18F8981116AC00E943103F50115
:1035A000608B718B828B938B21A132A14A8D5B8DB5
:1035B000232B09F057C0288D398D2130310509F0B2
:1035C00051C049305105E1F0483C510519F04430F3
:1035D0005105D1F4D50158966D937D938D939C93AD
:1035E0005B97E1E0F0E09296FC93EE939197C50132
:1035F0000E949A2460E070E0CB010E94FE0297CF07
:1036000083E090E092A381A3D5011A968D919C91BD
:103610000E946C09912CD50190968C9190978150C5
:1036200090968C93892DE8A1F9A10FB6F894FEBF6E
:103630000FBEEDBFA1960FB6F894DEBF0FBECDBF93
:10364000DF91CF911F910F91FF90EF90DF90CF907E
:10365000BF90AF909F908F907F906F905F904F90B2
:103660003F9008954530510509F061CFCDCFF50168
:1036700082859385F1E0EF16FF0640F0D501929622
:103680001C921E9291970E946C0951CF8DB69EB6E6
:1036900097012F5F3F4FEDB7FEB7E21BF30B0FB65D
:1036A000F894FEBF0FBEEDBF0DB71EB70F5F1F4FE3
:1036B000A701B801DC018D919C910E94BD038E157C
:1036C0009F0509F05FC0EA8DFB8DE00FF11F1082AE
:1036D0000E943103F501608B718B828B938B8F89F4
:1036E000843109F4ABC0E8F48F3009F4A7C081310C
:1036F00009F43CC2863009F04EC2488D598DD12C58
:10370000C12CF12CE12C08EC10E030E020E060E06E
:10371000C5010E94C61E0FB6F8949EBE0FBE8DBE98
:1037200006CF8932C9F08733B1F38D3109F033C246
:10373000D50181A192A1892B01F7E1E0F0E09296F9
:10374000FC93EE939197C5010E949A2460E070E08B
:10375000CB010E94FE02D1CF86859785892B39F453
:1037600080E490E00E94B32CF50197878687EA8C6D
:10377000FB8CE00EF11E1A830983FC82EB820E158E
:103780001F0530F00FB6F8949EBE0FBE8DBE3CCF25
:1037900040E450E0B801D5011E968D919C910E94A5
:1037A0008834D5011E96ED91FC9117AEC3010E949D
:1037B0007824FC018081918100E510E08E159F0541
:1037C00060F489819A810097A9F12B813C8182174D
:1037D000930780F50E949A2E8B01D5011A968D9140
:1037E0009C910E946C09D5011A96ED91FC911B9752
:1037F0001E968D919C911F979187808713870287D2
:1038000092961C921E9291970E943103DC01CB018B
:1038100088589341A109B109F501848B958BA68B3A
:10382000B78B808B918BA28BB38B808F918FA28F64
:10383000B38F71CF60E070E0CB01CECF888D998DD2
:10384000D5015F969C938E935E974A8C5B8C680142
:10385000C40CD51C1D8F0C8FDF8ECE8E0C151D0554
:1038600008F013C1F801E080F180CE014C960E946F
:103870007824DC018D919C918C159D0508F005C183
:103880008C8D9D8DFC012081213459F401960E947C
:103890007C2E4EE0342E380E069744F033243A94B2
:1038A00005C0CE014C960E948B24382EF6E7EF1609
:1038B000F2E7FF0609F406C138F531E6E31632E710
:1038C000F30609F4E6C044E6E41642E7F40609F418
:1038D00078C050E7E5165DE6F50609F039C18C8D34
:1038E0009D8D8C159D0508F0D0C0FC0120812134F0
:1038F000A9F501960E947C2E3EE0F32EF80E069765
:1039000094F1FF24FA942FC084E6E81687E7F806BE
:1039100009F4A2C096E7E91697E7F90609F4EAC0A8
:10392000A1E6EA16A7E7FA0609F012C1CE014C9605
:103930000E947824DC018D919C918C159D0508F0E6
:10394000A4C061E0832D0E942B02CE014C960E9400
:103950008B24BC01832D0E94670297C0CE014C9638
:103960000E948B24F82ECE014C960E9478240C8D58
:103970001D8D6AE172E0C8010E94783460E0892BF5
:1039800079F06DE172E0C8010E947834892B39F03A
:1039900061E272E0C8010E947834892B49F461E049
:1039A0008F2D0E942B02CE014C960E94782497CF37
:1039B00065E272E0C8010E947834892BA1F762E0C9
:1039C000EFCF7A8A698A1C8A1B8A00E110E01E8B7D
:1039D0000D8B68E272E0CE0141960E942A18032DF9
:1039E00010E0B801CE0141960E94291AF801E85C66
:1039F000FD4F8491F801EC5DFD4FF490005F1D4F89
:103A0000F801049160E070E0002389F081110E94C8
:103A1000D401E02FF0E0EE0FFF1FEA5FFD4FA5910C
:103A2000B491EC91FE2261E070E009F460E0CE0117
:103A300041960E94291A0B891C8901501109298974
:103A40003A89D12CC12CF12CE12C50E040E064E10A
:103A5000C5010E94C61E19C0CE014C960E94782452
:103A6000DC018D919C918C159D0578F461E0832D8E
:103A70000E942B02CE014C960E948B2461E0892B80
:103A800009F460E0832D0E94FD01F501178E168E6A
:103A900042CE7A8A698A1C8A1B8AE0E1F0E0FE8BBA
:103AA000ED8B6BE272E0CE0141960E942A18632DE5
:103AB00070E0CE0141960E94291A832D0E94C40213
:103AC000BC01B5CFE32DF0E0FA83E983BFE1B31584
:103AD000E0F2EE0FFF1FE45BFD4F259134912115BD
:103AE000310599F2E1E02A3B3E0779F2C301F90181
:103AF0000995CBCFCE014C960E9478248C8D9D8D5C
:103B00009C01201B310B421A530A9A8389835C82E1
:103B10004B825E824D82E32DF0E0FA8BE98B0FE160
:103B2000031508F4B2CFEE0FFF1FE457FD4F2591A8
:103B300034912115310509F4A8CF11E0293B310753
:103B400009F4A3CFB301CE014196F90109959DCFA8
:103B5000D5015E964D915C91D12CC12CF12CE12CBC
:103B600002E010E030E020E060E072CF8A8D9B8DB3
:103B7000800F911F1A8309839C838B830817190771
:103B800008F0C9CDC3010E947824D5015F961C922C
:103B90001E925E97C0CDF50112A211A28285938577
:103BA0000E946C09B8CD0E9431032B013C01F50144
:103BB000828593850E945909D50191962D913C915A
:103BC0002130310509F05EC0F501811109C0408E38
:103BD000518E628E738E12A211A28285938518CDAA
:103BE00080899189A289B38993018201081B190BED
:103BF0002A0B3B0BD901C801893116EF9107A105AA
:103C0000B10548F7893C9F4AA105B10590F4848924
:103C10009589A689B78993018201081B190B2A0B84
:103C20003B0BD901C801893C9F4AA105B10508F4A5
:103C30006DCCF501808D918DA28DB38D93018201A4
:103C4000081B190B2A0B3B0BD901C801813797417F
:103C5000A105B10508F45ACCD12CC12CF12CE12CD2
:103C600010E000E030E020E050E040E066E0C50118
:103C70000E94C61ED50158964D925D926D927C921F
:103C80005B9744CC232B09F041CCF501408D518D3D
:103C9000628D738D93018201041B150B260B370B6C
:103CA000B901A801882381F04137574161057105A9
:103CB00008F42CCC828593850E946C09D5019296DC
:103CC0001C921E929197A6CC49385341610571050B
:103CD00008F41CCC828593850E946C09D5011A9644
:103CE0000D911C91F80162857385C8010E9412092B
:103CF000D8011C968C931C9781110DC01A968D913A
:103D00009C918035910599F460E97FE1C8010E949A
:103D10001209F8018487F8019484911014C0D50128
:103D200058964D925D926D927C925B9774CC8039DF
:103D30009F4189F760E570E0C8010E941209D8012F
:103D40001C968C93E8CF81E090E0F501958F848FED
:103D500024853585F90101900020E9F731978F011D
:103D6000021B130BD12CC12CF12CE12C41E050E0B3
:103D70006DE1C5010E94C61EF50184899589A68959
:103D8000B789808F918FA28FB38F45CC2F923F92AE
:103D90004F925F926F927F928F929F92AF92BF925B
:103DA000CF92DF92EF92FF920F931F93CF93DF9307
:103DB000CDB7DEB7C854D1090FB6F894DEBF0FBE39
:103DC000CDBF4C0168AF5AAF49AF27963FAF2EAF7A
:103DD000279721961FAF0EAF21972996FFAEEEAE23
:103DE00029972396DFAECEAE2397DC011A968D91EC
:103DF0009C910E945909882309F4B7C1B8ADBB232F
:103E000051F0B63041F0BD3131F0F40181A192A101
:103E1000019709F0AAC188AD8F508630A0F5D40172
:103E200054964D915D916D917C9157975096CD90A0
:103E3000DD90ED90FC905397C416D506E606F70684
:103E400010F46A017B01B2E4CB0ED11CE11CF11C21
:103E50000E943103A7019601261B370B480B590B13
:103E6000DA01C901B7FD9BC1C4010E944E1A0E942C
:103E70003103A7019601261B370B480B590BDA01BA
:103E8000C901B7FFF1CFF40180819181019709F059
:103E9000B2C082E090E091838083228133814481AB
:103EA00055816681778180859185A0E0FE017A96B3
:103EB0000E948C3309F486C1FBABEAAB1DAA1CAA95
:103EC00088E190E09FAB8EAB68E172E0CE01C296D4
:103ED0000E942A18D40112964C90129713965C9067
:103EE000139714966C90149715967C9015971696C8
:103EF000BC91BBAFF401F781FCAFD40118962C90B4
:103F0000189719963C90198E9201A3016BAD7F2FE3
:103F1000C101A0E00E948C3309F44AC1FE017996E8
:103F20002596FFAFEEAF259727E130E03EAF2DAFEE
:103F30008AE0A82EB12CC12CD12CE12CF12C00E070
:103F400010E09201A3016BAD7CADC1010E942D3345
:103F5000F901E05DFD4F80812596AEADBFAD25979F
:103F60008E932596BFAFAEAF2597EDADFEAD3197E1
:103F7000FEAFEDAF9AE0A92EB12CC12CD12CE12CD3
:103F8000F12C00E010E09201A3016BAD7CADC1010A
:103F90000E942F3329013A016BAF7CAF1C01A0E0D6
:103FA0000E948C3321F04DAD5EAD452B09F66DAD11
:103FB0007EAD6C0F7D1F6E5F7F4F09F0FEC0EAA9DA
:103FC000FBA98CA99DA99C012F5F3F4F3DAB2CAB5A
:103FD000E80FF91F10820CA91DA9015011092AA987
:103FE0003BA9D12CC12CF12CE12C50E040E065E143
:103FF000C4010E94C61E29AD3AAD232BB9F4D401E9
:104000005E960D90BC91A02DBAAFA9AFAB2B71F409
:10401000F401848D958D019609F4E9C0958F848F04
:10402000F401048CF58DE02DFAAFE9AF27962EADA3
:104030003FAD279721960EAD1FAD21970B5F1F4F08
:10404000232B11F405E010E029964EAD5FAD2997C2
:1040500090E080E0452B21F023968EAD9FAD239715
:10406000080F191F58AD598389AD9AAD9827892734
:1040700098279B838A8321968EAD9FAD21972396A7
:10408000AEADBFAD23978A0F9B1F9827892798272E
:104090009D838C83D4011A96ED91FC91808191814E
:1040A000DC01ED91FC910280F381E02D45E050E0D0
:1040B000BE016F5F7F4F09957C0160E070E0CB012E
:1040C0000E94FE02B8ADBB2309F444C02196EEADB8
:1040D000FFAD2197EF2BE1F0D4011A96ED91FC9101
:1040E00080819181DC01ED91FC910280F381E02DD2
:1040F00021964EAD5FAD219727966EAD7FAD279788
:104100000995E80EF91E60E070E0CB010E94FE0206
:104110002396EEADFFAD2397EF2BE1F0D4011A9675
:10412000ED91FC9180819181DC01ED91FC91028007
:10413000F381E02D23964EAD5FAD239729966EADAA
:104140007FAD29970995E80EF91E60E070E0CB017C
:104150000E94FE02E016F10609F44EC0F40112A21C
:1041600011A2828593850E946C09C85BDF4F0FB650
:10417000F894DEBF0FBECDBFDF91CF911F910F919D
:10418000FF90EF90DF90CF90BF90AF909F908F9077
:104190007F906F905F904F903F902F900895D40143
:1041A00090968C9181116FCEC4010E944E1A6BCEF5
:1041B00080E3888FBE01685E7F4FCE01C2960E9469
:1041C0002A1809CFFA83E9831C821B8284E090E0DD
:1041D0009E838D836EE272E0CE0101960E942A18C2
:1041E0000B811C810150110929813A81FACE81E0AD
:1041F00090E0958F848F14CF0E943103D4015496A0
:104200006D937D938D939C935797AFCFCF92DF9211
:10421000EF92FF920F931F93CF93DF93CDB7DEB74B
:10422000C658D1090FB6F894DEBF0FBECDBF7C01D2
:104230008B01CE010196CF57DF4F99838883C158F8
:10424000D040CD57DF4F19821882C358D04080E844
:1042500090E0CB57DF4F99838883C558D04064E501
:1042600072E0CE018F579F4F0E942A18B701CE01EE
:104270008F579F4F0E94291AB801CE018F579F4F29
:104280000E94291ACD57DF4F08811981C358D040A9
:1042900001501109CF57DF4F28813981C158D040D3
:1042A000D12CC12CF12CE12C50E040E064E185E8F8
:1042B00095E00E94C61ECA57DF4F0FB6F894DEBFC6
:1042C0000FBECDBFDF91CF911F910F91FF90EF9067
:1042D000DF90CF9008950E94EC089093C1038093E3
:1042E000C0032091BB02803D37E0930748F52111C0
:1042F00013C00E94E40881E08093BB0261E070E09B
:1043000083E090E00E94062161E087E00E947A0A43
:1043100082EE91E00C94F1098F39974098F00E9459
:10432000DC081092BB0270E060E083E090E00E9445
:10433000062161E087E00E947A0A8CEE91E0EACFE4
:104340002111EDCF0895CF92DF92EF92FF920F935C
:104350001F93CF93DF93CDB7DEB7C658D1090FB601
:10436000F894DEBF0FBECDBF0E94C60820E030E04B
:104370004CE052E40E94113318160CF06DC080918D
:10438000BA02882309F468C01092BA0260E085E09E
:104390000E94FD0170E060E082E090E00E94062152
:1043A000CE010196CF57DF4F99838883C158D04003
:1043B000CD57DF4F19821882C358D04080E890E073
:1043C000CB57DF4F99838883C558D04064E572E0AE
:1043D000CE018F579F4F0E942A1866E070E0CE01F1
:1043E0008F579F4F0E94291A67E572E0CE018F57C1
:1043F0009F4F0E942A18CD57DF4F08811981C3585B
:10440000D04001501109CF57DF4F28813981C15861
:10441000D040D12CC12CF12CE12C50E040E064E1E3
:1044200085E895E00E94C61E61E087E00E947A0A56
:1044300088E792E00E94F109CA57DF4F0FB6F8945F
:10444000DEBF0FBECDBFDF91CF911F910F91FF90C7
:10445000EF90DF90CF9008950E94C60820E030E0F2
:1044600048EC51E40E94533187FFE6CF81E080930E
:10447000BA0261E085E00E94FD0161E070E082E047
:1044800090E00E94062161E087E00E947A0A81E8BC
:1044900092E0D0CFCF92DF92EF92FF920F931F93D3
:1044A000CF93DF93CDB7DEB7C75AD1090FB6F894D3
:1044B000DEBF0FBECDBF0E94C6086B017C01CE01DE
:1044C0000196CE55DF4F99838883C25AD040CC5590
:1044D000DF4F19821882C45AD04080E890E0CA5554
:1044E000DF4F99838883C65AD04064E572E0CE01DD
:1044F0008E559F4F0E942A1861E070E0CE018E55C4
:104500009F4F0E94291A8E010F571F4F23E045E04D
:10451000C701B6010E94952CB801CE018E559F4F60
:104520000E942A18CC55DF4F08811981C45AD04007
:1045300001501109CE55DF4F28813981C25AD04030
:10454000D12CC12CF12CE12C50E040E064E185E855
:1045500095E00E94C61EC955DF4F0FB6F894DEBF26
:104560000FBECDBFDF91CF911F910F91FF90EF90C4
:10457000DF90CF9008951F920F920FB60F921124E3
:104580002F933F938F939F93AF93BF938091C303D8
:104590009091C403A091C503B091C6033091C203AA
:1045A00023E0230F2D3758F50196A11DB11D20934F
:1045B000C2038093C3039093C403A093C503B09335
:1045C000C6038091C7039091C803A091C903B0911D
:1045D000CA030196A11DB11D8093C7039093C80320
:1045E000A093C903B093CA03BF91AF919F918F91DC
:1045F0003F912F910F900FBE0F901F90189526E8B6
:10460000230F0296A11DB11DD2CF1F920F920FB69C
:104610000F9211242F933F934F935F936F937F9348
:104620008F939F93AF93BF93EF93FF9388EE93E0A5
:104630000E948B04FF91EF91BF91AF919F918F9159
:104640007F916F915F914F913F912F910F900FBE8E
:104650000F901F9018951F920F920FB60F92112472
:104660002F938F939F93EF93FF93E091F803F09133
:10467000F9038081E091FE03F091FF0382FD1BC0EE
:104680009081809101048F5F8F73209102048217C3
:1046900041F0E0910104F0E0E851FC4F958F8093E8
:1046A0000104FF91EF919F918F912F910F900FBE79
:1046B0000F901F9018958081F4CF1F920F920FB624
:1046C0000F9211242F933F934F935F936F937F9398
:1046D0008F939F93AF93BF93EF93FF938091B90014
:1046E000887F803609F44AC0F0F5883209F4A5C005
:1046F00018F5803109F499C0B8F4882309F4F5C09D
:10470000883009F492C0FF91EF91BF91AF919F91D2
:104710008F917F916F915F914F913F912F910F906A
:104720000FBE0F901F901895883109F486C0803213
:1047300051F780932B0314C0803409F49BC040F4DC
:104740008033B9F38833F9F680932B0385ECAEC040
:10475000803509F483C0883509F494C0883499F60B
:104760000E945218D0CF883909F48AC038F58837AA
:1047700029F050F4883611F0803729F683E08093D1
:104780002C0310922A0355C0883809F479C0803967
:1047900019F0803809F0B7CF80912A03803208F0F1
:1047A0006FC0E0912A0381E08E0F80932A038091ED
:1047B000BB00F0E0E65FFC4F80833BC0803B39F0FC
:1047C000D0F4803A09F477C0883A09F09CCF84E0AD
:1047D00080932C031092090310920803F0E0E0E0AC
:1047E00009958091080381110FC081E0809308032F
:1047F0001092E80209C0803C09F4A8CF883C09F473
:10480000A5CF883B09F07FCFE091090381E08E0FAF
:1048100080930903F0E0E851FD4F80818093BB0055
:10482000909109038091080329C0809151038093DE
:10483000BB0085EC8093BC0066CF909150038091C3
:104840004F03981758F5E091500381E08E0F809345
:104850005003F0E0E15DFC4F8081E9CFE09150032F
:1048600081E08E0F809350038091BB00F0E0E15D0A
:10487000FC4F80839091500380914F039817C8F2AA
:1048800085E8D8CFE091500381E08E0F80935003EC
:104890008091BB00F0E0E15DFC4F808380912E03AE
:1048A00081115ECF81E080932D0384EA8093BC0068
:1048B00010922C0328CF85EC8093BC0010922C031F
:1048C00080912A03803230F4E0912A03F0E0E65F21
:1048D000FC4F108260912A0370E08AE093E0F0E0E0
:1048E000E0E0099510922A030ECF10922B0338CFE7
:1048F000DC01ED91FC911197309761F012962D91AA
:104900003C911397E217F30728F401900020E9F790
:10491000ED93FC930895FC0180819181009739F01B
:10492000228133818217930710F40C947C2E90E03F
:1049300080E00895AF92BF92CF92DF92EF92FF9204
:104940000F931F93CF93DF93CDB7DEB7CC5CD10924
:104950000FB6F894DEBF0FBECDBF5C01CE01895704
:104960009F4FC953DF4F99838883C75CD040C7539B
:10497000DF4F19821882C95CD04080E490E0C553B3
:10498000DF4F99838883CB5CD04061E472E0CE0135
:1049900089539F4F0E942A1866E472E0CE01895322
:1049A0009F4F0E942A1846E850E06AE671E0CE0167
:1049B00001960E94C12EC753DF4FC880D980C95CC1
:1049C000D04081E0C81AD108C953DF4FE880F98090
:1049D000C75CD04006E810E09E012F5F3F4F50E0DB
:1049E00040E061E1C5010E94C61EC453DF4F0FB60F
:1049F000F894DEBF0FBECDBFDF91CF911F910F9115
:104A0000FF90EF90DF90CF90BF90AF900895E8EEC9
:104A1000F3E01382128288EE93E0A0E0B0E084839A
:104A20009583A683B78329E631E03183208325EC83
:104A300030E03587248724EC30E03787268720EC68
:104A400030E0318B208B21EC30E0338B228B22EC59
:104A500030E0358B248B26EC30E0378B268B118EA3
:104A6000128E138E148EE5E8F4E013821282848392
:104A70009583A683B7838BE791E091838083E1E9F7
:104A8000F4E08BEC91E09183808312821382148294
:104A90001582E7E9F4E09183808312821382148205
:104AA0001582EDE9F4E091838083128213821482EF
:104AB0001582E3EAF4E091838083128213821482E8
:104AC0001582E9EAF4E091838083128213821482D2
:104AD0001582E5EBF4E091838083128213821482C5
:104AE0001582EFEAF4E091838083128213821482AC
:104AF0001582EBEBF4E0918380831282138214829F
:104B00001582E1ECF4E09183808312821382148297
:104B10001582EAECF5E0918380831282138214827D
:104B20001582EBEBF5E01382128229E931E0318343
:104B3000208324E0248728EE33E036872587AEEAF9
:104B4000B5E013969C938E93129714961D921D9226
:104B50001D921C92179719961C921E9218971B96DD
:104B60001C921E921A971C961C921C971196FC93ED
:104B7000EE9340E757E160E070E04483558366833D
:104B80007783E5E8F5E011821082128213821482A5
:104B900015821682178210861186B387A287158622
:104BA000148617861686108A118A128A138A148A26
:104BB000158A168A178A108E118E128E138E158EF4
:104BC000148E178E168E10A212A211A28FEF9FEFD5
:104BD0009093840580938305E7ECF4E013821282BE
:104BE0008DE891E09183808387E2848380E18187EF
:104BF00082E0828713860895CF93DF93CDB7DEB727
:104C0000A7970FB6F894DEBF0FBECDBF789484B5DA
:104C1000826084BD84B5816084BD85B5826085BDB8
:104C200085B5816085BD80916E00816080936E0046
:104C30001092810080918100826080938100809138
:104C400081008160809381008091800081608093E9
:104C500080008091B10084608093B1008091B000A9
:104C600081608093B00080917A00846080937A00A4
:104C700080917A00826080937A0080917A008160CE
:104C800080937A0080917A00806880937A001092F5
:104C9000C1000E9491018EEF8093A8059DEE909334
:104CA000A9052AEB2093AA058093AB058093AC0558
:104CB0009093AD0520E031E0D9010D900020E9F797
:104CC0009D0121503140A0E0B1E0E1E0F0E0AD0114
:104CD000405051404217530784F4AF014F5F5F4F7C
:104CE0006D91EB57FA4F83A1862783A34630510578
:104CF00014F041E050E0FA01EACF8091B80381114D
:104D00002AC01092A00310929F0388EE93E0A0E0C7
:104D1000B0E08093A1039093A203A093A303B09368
:104D2000A4038FE391E090939E0380939D038BEC0B
:104D300091E09093AC038093AB031092AD0310927B
:104D4000AE031092AF031092B00384E08093B503DA
:104D500081E08093B8038AE593E0909359038093B0
:104D60005803809157038111ADC060E372E080E089
:104D700090E00E94FE02DFB6F8940AE112E0EEE253
:104D8000EE2EE2E0FE2E80915503811125C0F80140
:104D90008491F7019491E82FF0E0EE0FFF1FEE50A1
:104DA000FE4FA591B4918C91982321F461E08AE0A3
:104DB0000E94FD0161E08AE00E942B028CB58061B7
:104DC0008CBD8CB580648CBD61E08DE00E942B02AF
:104DD00061E08BE00E942B02809155038F5F8093EE
:104DE0005503DFBEF8010491E02FF0E0EE0FFF1F46
:104DF000E450FE4F85919491909354038093530314
:104E0000F701E490E092520361E08AE00E942B02F5
:104E10000E94EF0680E591E00E94BB0184E380934D
:104E2000E70380E80E94BB070E94C30C882309F4B3
:104E3000FDC188E00E94BB070E94B00C883009F0D9
:104E4000F5C180E10E94BB070E94B00C803109F0DF
:104E5000EDC180E00E94BB070E94B00C182F8111A9
:104E6000E5C141E050E0BE016F5F7F4F8FE190E010
:104E70000E943B0B8981833009F0D8C180E4809384
:104E8000560342E06EE170E0812F0E94170842E075
:104E90006FE170E0812F0E9417081F5F143089F7BF
:104EA00040E06EE170E0812F0E94170840E06FE162
:104EB00070E0812F0E9417081F5F183089F781E08A
:104EC0008093570380E591E00E94BB0146E050E0EB
:104ED00068EA75E089E090E00E940B078BEC91E0B6
:104EE0009A8389831B821C821D821E8244E050E0CB
:104EF000BE016D5F7F4F8FE090E00E940B07009135
:104F0000580310915903D80192961D921D921D923B
:104F10001C929597F80116A217A210A611A69A96B0
:104F20001D921D921D921C929D9780E69AEEA0E024
:104F3000B0E086AB97ABA0AFB1AF80EA9FE0A0E056
:104F4000B0E082AF93AFA4AFB5AFD801189686E0BA
:104F5000FD01282F11922A95E9F79801225F3F4F12
:104F600094E1F90111929A95E9F7E8EAF5E00190E8
:104F70000D928A95E1F72C5C3F4F3DA32CA3D901FC
:104F80001C920E94242E2FEC37E040E050E00E945B
:104F90007732DC01CB010196A11DB11DF80184839C
:104FA0009583A683B78380839183A283B3835801BB
:104FB000F3E4AF0EB11CC5010E940B0C64E470E079
:104FC000C5010E94740F882309F499C10E9431031E
:104FD0002B013C0148EEC42E43E0D42EE12CF12CF1
:104FE00052E0252E912C812CACA1BDA18C91833057
:104FF000B9F181118EC1F80184819581A681B781B3
:105000000196A11DB11D84839583A683B7830E9459
:1050100031036419750986099709A70196010E9451
:10502000E032A90161E0C8010E941C1781E0ACA137
:10503000BDA18C93F1E08F169104B1F20E9431036F
:105040006419750986099709D801D6962D913D9165
:105050004D915C91D997261737074807590710F6E5
:10506000C5010E940B0CF80184819581A681B7814E
:105070000196A11DB11D84839583A683B7830E94E9
:105080003103F801FE9660837183828393838A944F
:10509000892809F034C180E591E00E94BB010091AC
:1050A000580310915903B801625F7F4FCE010196FA
:1050B0000E94191344E050E0BE016D5F7F4F8FE006
:1050C00090E00E940B07B8016A5E7F4FCE01019607
:1050D0000E94191344E050E0BE016D5F7F4F81E0F4
:1050E00090E00E940B07B8016E5E7F4FCE010196E3
:1050F0000E94191344E050E0BE016D5F7F4F85E0D0
:1051000090E00E940B07B801625E7F4FCE010196CE
:105110000E9419138B819C81AD81BE818093B10463
:105120009093B204A093B304B093B4040E94D90244
:105130007F738091210190912201682779277093D4
:1051400022016093210168EE73E080E090E00E940C
:10515000FE028BEC91E09A8389831B821C821D8264
:105160001E8280E591E00E94BB0144E050E0BE0158
:105170006D5F7F4F8FE090E00E943B0B80E091E0FD
:1051800090939205809391050E943103DC01CB013D
:1051900088589341A109B1098093990590939A0584
:1051A000A0939B05B0939C058093950590939605DD
:1051B000A0939705B093980580939D0590939E05C5
:1051C000A0939F05B093A005E0918F05F091900505
:1051D00088E892E09187808780E590E093878287D6
:1051E00080918F05909190050E946C091092A705FF
:1051F0001092A6050E9431036B017C018091A605E7
:105200009091A705019709F44FC10E9431036C19D1
:105210007D098E099F09603576448105910508F066
:1052200043C185E895E00E944E1AE8CF87E380935A
:10523000E70380E80E94BB070E94C30C882329F182
:1052400088E00E94BB070E94B00C8830F1F480E136
:105250000E94BB070E94B00C182F8031B1F480E08F
:105260000E94BB070E94B00C81110FC041E050E0CA
:10527000BE016F5F7F4F89E390E00E943B0B898105
:10528000843019F4109356031ACE83E38093E70316
:1052900080E80E94BB070E94C30C882371F180E163
:1052A0000E94BB070E94B00C803139F582E10E9458
:1052B000BB070E94B00C823101F580E00E94BB0761
:1052C0000E94B00C811119C084E08093560315E54B
:1052D0001BA341E050E0BE016D5D7F4F8BE190E08C
:1052E0000E940B071AA341E050E0BE016E5D7F4FA4
:1052F0008AE190E00E940B07E2CD1092E70360E1A3
:1053000077E280E090E00E94FE02F0E0E0E00995A4
:10531000FFCF8430F9F4F80184819581A681B781AB
:105320000196A11DB11D84839583A683B7830E9436
:1053300031036419750986099709A70196010E942E
:10534000E032A90163E0C8010E941C17ACA1BDA115
:105350002C9270CE813059F5F80142AD53AD64AD59
:1053600075AD9E012F5F3F4FC8010E948A18382EED
:10537000F2E08F1392C089819A81AB81BC81F801E0
:1053800084839583A683B7830E94310364197509CA
:1053900086099709A70196010E94E032A90163E0FE
:1053A000C8010E941C17ACA1BDA13C9243CE823023
:1053B00009F040CEF80142AD53AD64AD75AD9E012C
:1053C0002F5F3F4FC8010E948A18382EF5E08F13D7
:1053D0005DC0E3E0ACA1BDA1EC93F80182A193A173
:1053E000A4A1B5A1892B8A2B8B2B41F424E833E0AF
:1053F00040E050E022A333A344A355A3F80186A1C3
:1054000097A1A0A5B1A5892B8A2B8B2B61F482A132
:1054100093A1A4A1B5A1B695A7959795879586A3C5
:1054200097A3A0A7B1A7F80182A593A5A4A5B5A5A8
:10543000892B8A2B8B2BA9F482A193A1A4A1B5A1BE
:10544000AC01BD0123E076956795579547952A9560
:10545000D1F7841B950BA60BB70B82A793A7A4A724
:10546000B5A7F80186A197A1A0A5B1A586A797A782
:10547000A0ABB1AB82A593A5A4A5B5A582AB93AB18
:10548000A4ABB5AB88248394912CD4CDF6E08F13D4
:1054900004C0ACA1BDA11C92CDCDBFEF3B12CACDC3
:1054A000ECA1FDA11082C6CD8091A6059091A70523
:1054B000019709F095CE8091CC0488608093CC044C
:1054C00092E0F92EF092CF0462E370E080E090E089
:1054D0000E94FE026091D20487EC94E00E94EE05E7
:1054E00068EE73E080E090E00E94FE0260E387ECEB
:1054F00094E00E944A0A0BE416E4C8010197F1F710
:1055000060E387EC94E00E944A0AC8010197F1F732
:1055100060E387EC94E00E944A0A83E592E00197F9
:10552000F1F760E287EC94E00E944A0A6091CC04B3
:10553000606240E087EC94E00E94630A84E080931C
:10554000CD0440E06CE087EC94E00E94630A40E008
:1055500061E087EC94E00E94630A0BE31FE1C8015D
:105560000197F1F7F092CE0440E066E087EC94E01A
:105570000E94630A40E062E087EC94E00E94630AC4
:10558000C8010197F1F788E08093D20460E087ECCE
:1055900094E00E94EE0540E061E087EC94E00E9418
:1055A000630AC8010197F1F760E080E00E947A0A7F
:1055B00084E992E00E94F10961E080E00E947A0AA9
:1055C00084EA92E00E94F10961E088E00E947A0A90
:1055D00087EA92E00E94F1090E9491018FEF90E02A
:1055E0000E94FA048FEF90E00E94FA048FEF90E09F
:1055F0000E94FA0461E085E00E942B0260E08EE0E8
:105600000E942B0270E060E085E00E94670261E08A
:1056100085E00E942B0261E084E00E942B0260E0A2
:105620008EE00E942B028AE492E29A838983AE0183
:105630004F5F5F4F68EE73E080E090E00E943D03B3
:1056400083EA91E29A838983AE014F5F5F4F60EDF9
:1056500077E080E090E00E943D038BE691E29A8340
:105660008983AE014F5F5F4F68EB7BE080E090E0A5
:105670000E943D0322242394312C8EE00E94C40218
:10568000DC0121E03FEF4FEF5FEF0E9496322FEFFA
:1056900030E040E050E00E947732CA01B901615029
:1056A0007F4F8F4F9F4F85E00E9467020E94C60880
:1056B0008E010F5F1F4F22E044E00E94952C7C0179
:1056C000009709F40AC1FC0101900020E9F7319725
:1056D0008F01081B190BB8016F5F7F4F90E080E0CE
:1056E0000E949E336C01009709F4FCC0DC011C92FF
:1056F000B7010E94813460E082E00E947A0A8AEA5F
:1057000092E00E94F109A801B60187EC94E00E94A2
:105710000D040E94EC089093C1038093C00361E0E4
:1057200082E00E947A0A81EB92E00E94F1094091A6
:10573000C0035091C10370E060E02AE087EC94E080
:105740000E94980985E895E00E944E1A0E94310354
:105750002B013C0183EDE82E84E0F82E8701F8014F
:10576000158A148A84819581892B29F486819781F1
:10577000892B09F449C0D8012D913D914D915C913F
:1057800013972CA33DA34EA35FA3C301B201621BD9
:10579000730B840B950B1B968D909D90AD90BC90D8
:1057A0001E97681579058A059B0570F1811491048F
:1057B000A104B10409F499C0A50194010E94E0324A
:1057C000C501B4010E9416332CA13DA14EA15FA1D9
:1057D000620F731F841F951FD8016D937D938D9366
:1057E0009C931397D80153968C915397882361F01B
:1057F0001F962D913C9150972115310509F07BC0E2
:1058000055963C922E9254970A5E1F4F35E003380E
:10581000130709F0A4CF10E000E0D70154968D9152
:105820009C915597892BE9F11A968C911A978823A8
:1058300009F476C01696ED91FC91179718968D9104
:105840009C910995F70184899589029751F580917A
:10585000830590918405892B21F184819581892B81
:1058600021F486819781892BE1F026E1209FF001C8
:10587000219FF00D1124ED52FB4FDF011D922A955F
:10588000E9F70E943103F701608371838283938378
:10589000809183059091840501979093840580936E
:1058A00083050F5F1F4FF6E1EF0EF11C0830110565
:1058B00009F0B3CFC114D10419F0C6010E944F2DD5
:1058C00020E030E0232B09F4D8CE0E94770488230F
:1058D00009F4D3CE0E940000D0CE10E000E0D12C1D
:1058E000C12C09CF10E000E006CFF80140825182C0
:1058F0006282738277CFF801818992898217930738
:1059000008F082CF358A248A0196928B818B821788
:10591000930708F479CF22E030E0358B248B74CFE5
:105920001496ED91FC9109958DCFEF920F931F93F3
:10593000CF93DF93E80134E047FD34E1042E000CFF
:10594000550B57FF03C0519541955109E32E022F86
:10595000242FAE010E940C2FCE01DF91CF911F9119
:105960000F91EF9008950F931F93CF93DF938230A1
:10597000910510F482E090E0E091D205F091D3051A
:1059800030E020E0B0E0A0E0309799F42115310537
:1059900009F44AC0281B390B24303105D8F58A8117
:1059A0009B816115710589F1FB0193838283FE015F
:1059B00011C0408151810281138148175907E0F0DD
:1059C0004817590799F4109761F012960C931297A3
:1059D00013961C933296CF01DF91CF911F910F91B7
:1059E00008950093D2051093D305F4CF2115310506
:1059F00051F04217530738F0A901DB019A01BD01AC
:105A0000DF01F801C1CFEF01F9CF9093D305809367
:105A1000D205CDCFFE01E20FF31F81939193225067
:105A2000310939832883D7CF2091D0053091D10512
:105A3000232B41F420912501309126013093D1058B
:105A40002093D005209123013091240121153105A7
:105A500041F42DB73EB74091270150912801241BF6
:105A6000350BE091D005F091D105E217F307A0F4D2
:105A70002E1B3F0B2817390778F0AC014E5F5F4FA4
:105A80002417350748F04E0F5F1F5093D105409300
:105A9000D005819391939FCFF0E0E0E09CCFCF932E
:105AA000DF930097E9F0FC01329713821282A091F4
:105AB000D205B091D305ED0130E020E01097A1F4BC
:105AC00020813181820F931F2091D0053091D10523
:105AD0002817390709F061C0F093D105E093D0058C
